{
  "_format": "hh-sol-artifact-1",
  "contractName": "FarmMateLedger",
  "sourceName": "contracts/FarmMateLedger.sol",
  "abi": [
    {
      "anonymous": false,
      "inputs": [
        {
          "indexed": true,
          "internalType": "uint256",
          "name": "batchId",
          "type": "uint256"
        },
        {
          "indexed": true,
          "internalType": "address",
          "name": "farmer",
          "type": "address"
        },
        {
          "indexed": false,
          "internalType": "string",
          "name": "metadataCID",
          "type": "string"
        },
        {
          "indexed": false,
          "internalType": "uint256",
          "name": "priceWei",
          "type": "uint256"
        }
      ],
      "name": "BatchCreated",
      "type": "event"
    },
    {
      "anonymous": false,
      "inputs": [
        {
          "indexed": true,
          "internalType": "uint256",
          "name": "batchId",
          "type": "uint256"
        },
        {
          "indexed": false,
          "internalType": "uint256",
          "name": "priceWei",
          "type": "uint256"
        }
      ],
      "name": "BatchListed",
      "type": "event"
    },
    {
      "anonymous": false,
      "inputs": [
        {
          "indexed": true,
          "internalType": "uint256",
          "name": "batchId",
          "type": "uint256"
        }
      ],
      "name": "Delivered",
      "type": "event"
    },
    {
      "anonymous": false,
      "inputs": [
        {
          "indexed": true,
          "internalType": "uint256",
          "name": "batchId",
          "type": "uint256"
        },
        {
          "indexed": true,
          "internalType": "address",
          "name": "buyer",
          "type": "address"
        },
        {
          "indexed": false,
          "internalType": "uint256",
          "name": "amountWei",
          "type": "uint256"
        }
      ],
      "name": "EscrowFunded",
      "type": "event"
    },
    {
      "anonymous": false,
      "inputs": [
        {
          "indexed": true,
          "internalType": "address",
          "name": "account",
          "type": "address"
        },
        {
          "indexed": false,
          "internalType": "uint256",
          "name": "amount",
          "type": "uint256"
        }
      ],
      "name": "IncentiveAwarded",
      "type": "event"
    },
    {
      "anonymous": false,
      "inputs": [
        {
          "indexed": true,
          "internalType": "uint256",
          "name": "batchId",
          "type": "uint256"
        },
        {
          "indexed": false,
          "internalType": "string",
          "name": "metadataCID",
          "type": "string"
        }
      ],
      "name": "MetadataUpdated",
      "type": "event"
    },
    {
      "anonymous": false,
      "inputs": [
        {
          "indexed": true,
          "internalType": "uint256",
          "name": "batchId",
          "type": "uint256"
        },
        {
          "indexed": false,
          "internalType": "string",
          "name": "noteCID",
          "type": "string"
        }
      ],
      "name": "ProvenanceAdded",
      "type": "event"
    },
    {
      "anonymous": false,
      "inputs": [
        {
          "indexed": true,
          "internalType": "uint256",
          "name": "batchId",
          "type": "uint256"
        },
        {
          "indexed": false,
          "internalType": "uint8",
          "name": "qualityScore",
          "type": "uint8"
        },
        {
          "indexed": false,
          "internalType": "bool",
          "name": "dataVerified",
          "type": "bool"
        }
      ],
      "name": "QualityUpdated",
      "type": "event"
    },
    {
      "anonymous": false,
      "inputs": [
        {
          "indexed": true,
          "internalType": "uint256",
          "name": "batchId",
          "type": "uint256"
        },
        {
          "indexed": false,
          "internalType": "uint256",
          "name": "amountWei",
          "type": "uint256"
        }
      ],
      "name": "Refunded",
      "type": "event"
    },
    {
      "anonymous": false,
      "inputs": [
        {
          "indexed": true,
          "internalType": "uint256",
          "name": "batchId",
          "type": "uint256"
        },
        {
          "indexed": false,
          "internalType": "uint256",
          "name": "amountWei",
          "type": "uint256"
        }
      ],
      "name": "Released",
      "type": "event"
    },
    {
      "inputs": [
        {
          "internalType": "uint256",
          "name": "batchId",
          "type": "uint256"
        },
        {
          "internalType": "string",
          "name": "noteCID",
          "type": "string"
        }
      ],
      "name": "addProvenance",
      "outputs": [],
      "stateMutability": "nonpayable",
      "type": "function"
    },
    {
      "inputs": [
        {
          "internalType": "string",
          "name": "metadataCID",
          "type": "string"
        },
        {
          "internalType": "uint256",
          "name": "priceWei",
          "type": "uint256"
        }
      ],
      "name": "createBatch",
      "outputs": [
        {
          "internalType": "uint256",
          "name": "batchId",
          "type": "uint256"
        }
      ],
      "stateMutability": "nonpayable",
      "type": "function"
    },
    {
      "inputs": [
        {
          "internalType": "uint256",
          "name": "batchId",
          "type": "uint256"
        }
      ],
      "name": "fundEscrow",
      "outputs": [],
      "stateMutability": "payable",
      "type": "function"
    },
    {
      "inputs": [
        {
          "internalType": "uint256",
          "name": "batchId",
          "type": "uint256"
        }
      ],
      "name": "getBatch",
      "outputs": [
        {
          "internalType": "uint256",
          "name": "id",
          "type": "uint256"
        },
        {
          "internalType": "address",
          "name": "farmer",
          "type": "address"
        },
        {
          "internalType": "string",
          "name": "metadataCID",
          "type": "string"
        },
        {
          "internalType": "uint8",
          "name": "qualityScore",
          "type": "uint8"
        },
        {
          "internalType": "bool",
          "name": "dataVerified",
          "type": "bool"
        },
        {
          "internalType": "uint256",
          "name": "priceWei",
          "type": "uint256"
        },
        {
          "internalType": "address",
          "name": "buyer",
          "type": "address"
        },
        {
          "internalType": "uint256",
          "name": "escrowAmountWei",
          "type": "uint256"
        },
        {
          "internalType": "enum FarmMateLedger.BatchState",
          "name": "state",
          "type": "uint8"
        },
        {
          "internalType": "uint256",
          "name": "createdAt",
          "type": "uint256"
        }
      ],
      "stateMutability": "view",
      "type": "function"
    },
    {
      "inputs": [
        {
          "internalType": "uint256",
          "name": "batchId",
          "type": "uint256"
        }
      ],
      "name": "getProvenanceCIDs",
      "outputs": [
        {
          "internalType": "string[]",
          "name": "",
          "type": "string[]"
        }
      ],
      "stateMutability": "view",
      "type": "function"
    },
    {
      "inputs": [
        {
          "internalType": "address",
          "name": "",
          "type": "address"
        }
      ],
      "name": "incentivePoints",
      "outputs": [
        {
          "internalType": "uint256",
          "name": "",
          "type": "uint256"
        }
      ],
      "stateMutability": "view",
      "type": "function"
    },
    {
      "inputs": [
        {
          "internalType": "uint256",
          "name": "batchId",
          "type": "uint256"
        },
        {
          "internalType": "uint256",
          "name": "newPriceWei",
          "type": "uint256"
        }
      ],
      "name": "listBatch",
      "outputs": [],
      "stateMutability": "nonpayable",
      "type": "function"
    },
    {
      "inputs": [
        {
          "internalType": "uint256",
          "name": "batchId",
          "type": "uint256"
        }
      ],
      "name": "markDelivered",
      "outputs": [],
      "stateMutability": "nonpayable",
      "type": "function"
    },
    {
      "inputs": [
        {
          "internalType": "uint256",
          "name": "batchId",
          "type": "uint256"
        }
      ],
      "name": "refundBuyer",
      "outputs": [],
      "stateMutability": "nonpayable",
      "type": "function"
    },
    {
      "inputs": [
        {
          "internalType": "uint256",
          "name": "batchId",
          "type": "uint256"
        }
      ],
      "name": "releaseToFarmer",
      "outputs": [],
      "stateMutability": "nonpayable",
      "type": "function"
    },
    {
      "inputs": [
        {
          "internalType": "uint256",
          "name": "batchId",
          "type": "uint256"
        },
        {
          "internalType": "string",
          "name": "newCID",
          "type": "string"
        }
      ],
      "name": "updateMetadata",
      "outputs": [],
      "stateMutability": "nonpayable",
      "type": "function"
    },
    {
      "inputs": [
        {
          "internalType": "uint256",
          "name": "batchId",
          "type": "uint256"
        },
        {
          "internalType": "uint8",
          "name": "qualityScore",
          "type": "uint8"
        },
        {
          "internalType": "bool",
          "name": "dataVerified",
          "type": "bool"
        }
      ],
      "name": "updateQuality",
      "outputs": [],
      "stateMutability": "nonpayable",
      "type": "function"
    }
  ],
  "bytecode": "0x608060405260018055600160035534801561001957600080fd5b5061157c806100296000396000f3fe6080604052600436106100a75760003560e01c8063a705d39811610064578063a705d3981461019a578063bcc27ee8146101ba578063bfefec1f146101da578063c9c31af514610215578063e116230614610228578063eb826a5f1461024857600080fd5b806321664650146100ac57806337c5f3b6146100ce578063392927631461010457806353c8388e146101245780635ac4428214610144578063a0a586831461017a575b600080fd5b3480156100b857600080fd5b506100cc6100c7366004610ff2565b610268565b005b3480156100da57600080fd5b506100ee6100e9366004611014565b610361565b6040516100fb9190611073565b60405180910390f35b34801561011057600080fd5b506100cc61011f366004611014565b61046d565b34801561013057600080fd5b506100cc61013f36600461111e565b610653565b34801561015057600080fd5b5061016461015f366004611014565b610726565b6040516100fb9a99989796959493929190611180565b34801561018657600080fd5b506100cc610195366004611014565b610872565b3480156101a657600080fd5b506100cc6101b536600461120d565b610ae2565b3480156101c657600080fd5b506100cc6101d536600461111e565b610c05565b3480156101e657600080fd5b506102076101f536600461125a565b60006020819052908152604090205481565b6040519081526020016100fb565b6100cc610223366004611014565b610c89565b34801561023457600080fd5b5061020761024336600461128a565b610e0a565b34801561025457600080fd5b506100cc610263366004611014565b610ef1565b600061027383610f74565b90506000600782015460ff1660058111156102905761029061116a565b14806102b457506001600782015460ff1660058111156102b2576102b261116a565b145b6102d95760405162461bcd60e51b81526004016102d0906112d6565b60405180910390fd5b600082116103115760405162461bcd60e51b8152602060048201526005602482015264505249434560d81b60448201526064016102d0565b6004810182905560078101805460ff1916600117905560405182815283907f7e9dc4a348b468a10ad723ec91c86baa882b01345313c66e72cc37f5abb5f54f9060200160405180910390a2505050565b60008181526002602052604081208054606092036103915760405162461bcd60e51b81526004016102d0906112f5565b80600901805480602002602001604051908101604052809291908181526020016000905b828210156104615783829060005260206000200180546103d490611318565b80601f016020809104026020016040519081016040528092919081815260200182805461040090611318565b801561044d5780601f106104225761010080835404028352916020019161044d565b820191906000526020600020905b81548152906001019060200180831161043057829003601f168201915b5050505050815260200190600101906103b5565b50505050915050919050565b60035460011461048f5760405162461bcd60e51b81526004016102d090611352565b6002600381905560008281526020919091526040812080549091036104c65760405162461bcd60e51b81526004016102d0906112f5565b6002600782015460ff1660058111156104e1576104e161116a565b146104fe5760405162461bcd60e51b81526004016102d0906112d6565b60058101546001600160a01b0316331480610525575060018101546001600160a01b031633145b61055a5760405162461bcd60e51b81526004016102d090602080825260049082015263524f4c4560e01b604082015260600190565b60068101805460058084015460009384905560078501805460ff191690921790915560405191926001600160a01b0390911691829084908381818185875af1925050503d80600081146105c9576040519150601f19603f3d011682016040523d82523d6000602084013e6105ce565b606091505b505090508061060d5760405162461bcd60e51b815260206004820152600b60248201526a14915195539117d190525360aa1b60448201526064016102d0565b847fb7c1f9298a18c36af08bd57eabbfbeb04695f24d0438f67614741ec15fb5c4a98460405161063f91815260200190565b60405180910390a250506001600355505050565b600061065e84610f74565b90506004600782015460ff16600581111561067b5761067b61116a565b141580156106a257506005600782015460ff16600581111561069f5761069f61116a565b14155b6106d65760405162461bcd60e51b8152602060048201526005602482015264119253905360da1b60448201526064016102d0565b600281016106e58385836113da565b50837f459157ba24c7ab9878b165ef465fa6ae2ab42bcd8445f576be378768b0c4730984846040516107189291906114c4565b60405180910390a250505050565b6000806060600080600080600080600080600260008d8152602001908152602001600020905080600001546000036107705760405162461bcd60e51b81526004016102d0906112f5565b805460018201546003830154600484015460058501546006860154600787015460088801546002890180546001600160a01b0398891698919760ff808216986101009092048116979196919093169490939216919088906107d090611318565b80601f01602080910402602001604051908101604052809291908181526020018280546107fc90611318565b80156108495780601f1061081e57610100808354040283529160200191610849565b820191906000526020600020905b81548152906001019060200180831161082c57829003601f168201915b505050505097509a509a509a509a509a509a509a509a509a509a50509193959799509193959799565b6003546001146108945760405162461bcd60e51b81526004016102d090611352565b6002600381905560008281526020919091526040812080549091036108cb5760405162461bcd60e51b81526004016102d0906112f5565b6003600782015460ff1660058111156108e6576108e661116a565b146109035760405162461bcd60e51b81526004016102d0906112d6565b60058101546001600160a01b0316331461094c5760405162461bcd60e51b815260206004820152600a60248201526927a7262cafa12aaca2a960b11b60448201526064016102d0565b60068101805460009182905560078301805460ff1916600417905560018301546040519192916001600160a01b039091169083908381818185875af1925050503d80600081146109b8576040519150601f19603f3d011682016040523d82523d6000602084013e6109bd565b606091505b50509050806109f95760405162461bcd60e51b815260206004820152600860248201526714105657d190525360c21b60448201526064016102d0565b837fd5840651550c173a8bf246eede440a59253bc61eadb2e8887168faad2fad631d83604051610a2b91815260200190565b60405180910390a26003830154610100900460ff168015610a5657506003830154603c60ff90911610155b15610ad75760018301546001600160a01b031660009081526020819052604081208054678ac7230489e8000092839291610a919084906114f6565b909155505060018401546040518281526001600160a01b03909116907fbb1fcc2b90d06c887029eb908822f20c6cf96338f16a10e78aa48ed5ddcbb9ee9060200161063f565b505060016003555050565b6000610aed84610f74565b90506000600782015460ff166005811115610b0a57610b0a61116a565b1480610b2e57506001600782015460ff166005811115610b2c57610b2c61116a565b145b80610b5157506002600782015460ff166005811115610b4f57610b4f61116a565b145b610b6d5760405162461bcd60e51b81526004016102d0906112d6565b60648360ff161115610ba95760405162461bcd60e51b815260206004820152600560248201526452414e474560d81b60448201526064016102d0565b60038101805460ff851661ffff1990911681176101008515159081029190911790925560408051918252602082019290925285917f3c622931bf6879d7031ad90adfdad49a1c9dfd0406482e2a7b7a61c6434815759101610718565b60008381526002602052604081208054909103610c345760405162461bcd60e51b81526004016102d0906112f5565b6009810180546001810182556000918252602090912001610c568385836113da565b50837fc3552fd5eafdd121029cf45154d3d712982336cee53da63262b96c431e76cf2b84846040516107189291906114c4565b600354600114610cab5760405162461bcd60e51b81526004016102d090611352565b600260038190556000828152602091909152604081208054909103610ce25760405162461bcd60e51b81526004016102d0906112f5565b6001600782015460ff166005811115610cfd57610cfd61116a565b14610d1a5760405162461bcd60e51b81526004016102d0906112d6565b80600401543414610d565760405162461bcd60e51b8152602060048201526006602482015265105353d5539560d21b60448201526064016102d0565b60058101546001600160a01b031615610d9d5760405162461bcd60e51b81526020600482015260096024820152682420a9afa12aaca2a960b91b60448201526064016102d0565b600581018054336001600160a01b03199091168117909155346006830181905560078301805460ff1916600217905560405190815283907f4a2cd88ec7a748d5b20b3512d7249c67745777b219009075c745923684e9653d9060200160405180910390a350506001600355565b6000808211610e435760405162461bcd60e51b8152602060048201526005602482015264505249434560d81b60448201526064016102d0565b60018054906000610e5383611509565b9091555060008181526002602081905260409091208281556001810180546001600160a01b031916331790559192508101610e8f8587836113da565b506004810183905560078101805460ff19169055426008820155604051339083907f24d4dd2cd73442ce7ba8d012afd0ab2601a6b3c593b368a0a91b1bac5d5d27f290610ee190899089908990611522565b60405180910390a3509392505050565b6000610efc82610f74565b90506002600782015460ff166005811115610f1957610f1961116a565b14610f365760405162461bcd60e51b81526004016102d0906112d6565b60078101805460ff1916600317905560405182907ffcc296b8bdd64e3f1d1faadef50cb2d6550f645316330fe57cb1dd7e0612ead090600090a25050565b600081815260026020526040812080548203610fa25760405162461bcd60e51b81526004016102d0906112f5565b60018101546001600160a01b03163314610fec5760405162461bcd60e51b815260206004820152600b60248201526a27a7262cafa320a926a2a960a91b60448201526064016102d0565b92915050565b6000806040838503121561100557600080fd5b50508035926020909101359150565b60006020828403121561102657600080fd5b5035919050565b6000815180845260005b8181101561105357602081850181015186830182015201611037565b506000602082860101526020601f19601f83011685010191505092915050565b6000602080830181845280855180835260408601915060408160051b870101925083870160005b828110156110c857603f198886030184526110b685835161102d565b9450928501929085019060010161109a565b5092979650505050505050565b60008083601f8401126110e757600080fd5b50813567ffffffffffffffff8111156110ff57600080fd5b60208301915083602082850101111561111757600080fd5b9250929050565b60008060006040848603121561113357600080fd5b83359250602084013567ffffffffffffffff81111561115157600080fd5b61115d868287016110d5565b9497909650939450505050565b634e487b7160e01b600052602160045260246000fd5b8a81526001600160a01b038a81166020830152610140604083018190526000916111ac8483018d61102d565b925060ff8b16606085015289151560808501528860a085015280881660c085015250508460e0830152600684106111f357634e487b7160e01b600052602160045260246000fd5b610100820193909352610120015298975050505050505050565b60008060006060848603121561122257600080fd5b83359250602084013560ff8116811461123a57600080fd5b91506040840135801515811461124f57600080fd5b809150509250925092565b60006020828403121561126c57600080fd5b81356001600160a01b038116811461128357600080fd5b9392505050565b60008060006040848603121561129f57600080fd5b833567ffffffffffffffff8111156112b657600080fd5b6112c2868287016110d5565b909790965060209590950135949350505050565b602080825260059082015264535441544560d81b604082015260600190565b6020808252600990820152681393d517d193d5539160ba1b604082015260600190565b600181811c9082168061132c57607f821691505b60208210810361134c57634e487b7160e01b600052602260045260246000fd5b50919050565b60208082526009908201526814915153951490539560ba1b604082015260600190565b634e487b7160e01b600052604160045260246000fd5b601f8211156113d557600081815260208120601f850160051c810160208610156113b25750805b601f850160051c820191505b818110156113d1578281556001016113be565b5050505b505050565b67ffffffffffffffff8311156113f2576113f2611375565b611406836114008354611318565b8361138b565b6000601f84116001811461143a57600085156114225750838201355b600019600387901b1c1916600186901b178355611494565b600083815260209020601f19861690835b8281101561146b578685013582556020948501946001909201910161144b565b50868210156114885760001960f88860031b161c19848701351681555b505060018560011b0183555b5050505050565b81835281816020850137506000828201602090810191909152601f909101601f19169091010190565b6020815260006114d860208301848661149b565b949350505050565b634e487b7160e01b600052601160045260246000fd5b80820180821115610fec57610fec6114e0565b60006001820161151b5761151b6114e0565b5060010190565b60408152600061153660408301858761149b565b905082602083015294935050505056fea2646970667358221220ed6be01ddad7070b773417316b564fdc0eb60ff0ce35f9b7da342d2f6ceebd4364736f6c63430008140033",
  "linkReferences": {},
  "deployedLinkReferences": {}
}