{"contracts/FarmMateLedger.sol":{"FarmMateLedger":{"abi":[{"anonymous":false,"inputs":[{"indexed":true,"internalType":"uint256","name":"batchId","type":"uint256"},{"indexed":true,"internalType":"address","name":"farmer","type":"address"},{"indexed":false,"internalType":"string","name":"metadataCID","type":"string"},{"indexed":false,"internalType":"uint256","name":"priceWei","type":"uint256"}],"name":"BatchCreated","type":"event"},{"anonymous":false,"inputs":[{"indexed":true,"internalType":"uint256","name":"batchId","type":"uint256"},{"indexed":false,"internalType":"uint256","name":"priceWei","type":"uint256"}],"name":"BatchListed","type":"event"},{"anonymous":false,"inputs":[{"indexed":true,"internalType":"uint256","name":"batchId","type":"uint256"}],"name":"Delivered","type":"event"},{"anonymous":false,"inputs":[{"indexed":true,"internalType":"uint256","name":"batchId","type":"uint256"},{"indexed":true,"internalType":"address","name":"buyer","type":"address"},{"indexed":false,"internalType":"uint256","name":"amountWei","type":"uint256"}],"name":"EscrowFunded","type":"event"},{"anonymous":false,"inputs":[{"indexed":true,"internalType":"address","name":"account","type":"address"},{"indexed":false,"internalType":"uint256","name":"amount","type":"uint256"}],"name":"IncentiveAwarded","type":"event"},{"anonymous":false,"inputs":[{"indexed":true,"internalType":"uint256","name":"batchId","type":"uint256"},{"indexed":false,"internalType":"string","name":"metadataCID","type":"string"}],"name":"MetadataUpdated","type":"event"},{"anonymous":false,"inputs":[{"indexed":true,"internalType":"uint256","name":"batchId","type":"uint256"},{"indexed":false,"internalType":"string","name":"noteCID","type":"string"}],"name":"ProvenanceAdded","type":"event"},{"anonymous":false,"inputs":[{"indexed":true,"internalType":"uint256","name":"batchId","type":"uint256"},{"indexed":false,"internalType":"uint8","name":"qualityScore","type":"uint8"},{"indexed":false,"internalType":"bool","name":"dataVerified","type":"bool"}],"name":"QualityUpdated","type":"event"},{"anonymous":false,"inputs":[{"indexed":true,"internalType":"uint256","name":"batchId","type":"uint256"},{"indexed":false,"internalType":"uint256","name":"amountWei","type":"uint256"}],"name":"Refunded","type":"event"},{"anonymous":false,"inputs":[{"indexed":true,"internalType":"uint256","name":"batchId","type":"uint256"},{"indexed":false,"internalType":"uint256","name":"amountWei","type":"uint256"}],"name":"Released","type":"event"},{"inputs":[{"internalType":"uint256","name":"batchId","type":"uint256"},{"internalType":"string","name":"noteCID","type":"string"}],"name":"addProvenance","outputs":[],"stateMutability":"nonpayable","type":"function"},{"inputs":[{"internalType":"string","name":"metadataCID","type":"string"},{"internalType":"uint256","name":"priceWei","type":"uint256"}],"name":"createBatch","outputs":[{"internalType":"uint256","name":"batchId","type":"uint256"}],"stateMutability":"nonpayable","type":"function"},{"inputs":[{"internalType":"uint256","name":"batchId","type":"uint256"}],"name":"fundEscrow","outputs":[],"stateMutability":"payable","type":"function"},{"inputs":[{"internalType":"uint256","name":"batchId","type":"uint256"}],"name":"getBatch","outputs":[{"internalType":"uint256","name":"id","type":"uint256"},{"internalType":"address","name":"farmer","type":"address"},{"internalType":"string","name":"metadataCID","type":"string"},{"internalType":"uint8","name":"qualityScore","type":"uint8"},{"internalType":"bool","name":"dataVerified","type":"bool"},{"internalType":"uint256","name":"priceWei","type":"uint256"},{"internalType":"address","name":"buyer","type":"address"},{"internalType":"uint256","name":"escrowAmountWei","type":"uint256"},{"internalType":"enum FarmMateLedger.BatchState","name":"state","type":"uint8"},{"internalType":"uint256","name":"createdAt","type":"uint256"}],"stateMutability":"view","type":"function"},{"inputs":[{"internalType":"uint256","name":"batchId","type":"uint256"}],"name":"getProvenanceCIDs","outputs":[{"internalType":"string[]","name":"","type":"string[]"}],"stateMutability":"view","type":"function"},{"inputs":[{"internalType":"address","name":"","type":"address"}],"name":"incentivePoints","outputs":[{"internalType":"uint256","name":"","type":"uint256"}],"stateMutability":"view","type":"function"},{"inputs":[{"internalType":"uint256","name":"batchId","type":"uint256"},{"internalType":"uint256","name":"newPriceWei","type":"uint256"}],"name":"listBatch","outputs":[],"stateMutability":"nonpayable","type":"function"},{"inputs":[{"internalType":"uint256","name":"batchId","type":"uint256"}],"name":"markDelivered","outputs":[],"stateMutability":"nonpayable","type":"function"},{"inputs":[{"internalType":"uint256","name":"batchId","type":"uint256"}],"name":"refundBuyer","outputs":[],"stateMutability":"nonpayable","type":"function"},{"inputs":[{"internalType":"uint256","name":"batchId","type":"uint256"}],"name":"releaseToFarmer","outputs":[],"stateMutability":"nonpayable","type":"function"},{"inputs":[{"internalType":"uint256","name":"batchId","type":"uint256"},{"internalType":"string","name":"newCID","type":"string"}],"name":"updateMetadata","outputs":[],"stateMutability":"nonpayable","type":"function"},{"inputs":[{"internalType":"uint256","name":"batchId","type":"uint256"},{"internalType":"uint8","name":"qualityScore","type":"uint8"},{"internalType":"bool","name":"dataVerified","type":"bool"}],"name":"updateQuality","outputs":[],"stateMutability":"nonpayable","type":"function"}],"evm":{"bytecode":{"linkReferences":{},"object":"608060405260018055600160035534801561001957600080fd5b5061157c806100296000396000f3fe6080604052600436106100a75760003560e01c8063a705d39811610064578063a705d3981461019a578063bcc27ee8146101ba578063bfefec1f146101da578063c9c31af514610215578063e116230614610228578063eb826a5f1461024857600080fd5b806321664650146100ac57806337c5f3b6146100ce578063392927631461010457806353c8388e146101245780635ac4428214610144578063a0a586831461017a575b600080fd5b3480156100b857600080fd5b506100cc6100c7366004610ff2565b610268565b005b3480156100da57600080fd5b506100ee6100e9366004611014565b610361565b6040516100fb9190611073565b60405180910390f35b34801561011057600080fd5b506100cc61011f366004611014565b61046d565b34801561013057600080fd5b506100cc61013f36600461111e565b610653565b34801561015057600080fd5b5061016461015f366004611014565b610726565b6040516100fb9a99989796959493929190611180565b34801561018657600080fd5b506100cc610195366004611014565b610872565b3480156101a657600080fd5b506100cc6101b536600461120d565b610ae2565b3480156101c657600080fd5b506100cc6101d536600461111e565b610c05565b3480156101e657600080fd5b506102076101f536600461125a565b60006020819052908152604090205481565b6040519081526020016100fb565b6100cc610223366004611014565b610c89565b34801561023457600080fd5b5061020761024336600461128a565b610e0a565b34801561025457600080fd5b506100cc610263366004611014565b610ef1565b600061027383610f74565b90506000600782015460ff1660058111156102905761029061116a565b14806102b457506001600782015460ff1660058111156102b2576102b261116a565b145b6102d95760405162461bcd60e51b81526004016102d0906112d6565b60405180910390fd5b600082116103115760405162461bcd60e51b8152602060048201526005602482015264505249434560d81b60448201526064016102d0565b6004810182905560078101805460ff1916600117905560405182815283907f7e9dc4a348b468a10ad723ec91c86baa882b01345313c66e72cc37f5abb5f54f9060200160405180910390a2505050565b60008181526002602052604081208054606092036103915760405162461bcd60e51b81526004016102d0906112f5565b80600901805480602002602001604051908101604052809291908181526020016000905b828210156104615783829060005260206000200180546103d490611318565b80601f016020809104026020016040519081016040528092919081815260200182805461040090611318565b801561044d5780601f106104225761010080835404028352916020019161044d565b820191906000526020600020905b81548152906001019060200180831161043057829003601f168201915b5050505050815260200190600101906103b5565b50505050915050919050565b60035460011461048f5760405162461bcd60e51b81526004016102d090611352565b6002600381905560008281526020919091526040812080549091036104c65760405162461bcd60e51b81526004016102d0906112f5565b6002600782015460ff1660058111156104e1576104e161116a565b146104fe5760405162461bcd60e51b81526004016102d0906112d6565b60058101546001600160a01b0316331480610525575060018101546001600160a01b031633145b61055a5760405162461bcd60e51b81526004016102d090602080825260049082015263524f4c4560e01b604082015260600190565b60068101805460058084015460009384905560078501805460ff191690921790915560405191926001600160a01b0390911691829084908381818185875af1925050503d80600081146105c9576040519150601f19603f3d011682016040523d82523d6000602084013e6105ce565b606091505b505090508061060d5760405162461bcd60e51b815260206004820152600b60248201526a14915195539117d190525360aa1b60448201526064016102d0565b847fb7c1f9298a18c36af08bd57eabbfbeb04695f24d0438f67614741ec15fb5c4a98460405161063f91815260200190565b60405180910390a250506001600355505050565b600061065e84610f74565b90506004600782015460ff16600581111561067b5761067b61116a565b141580156106a257506005600782015460ff16600581111561069f5761069f61116a565b14155b6106d65760405162461bcd60e51b8152602060048201526005602482015264119253905360da1b60448201526064016102d0565b600281016106e58385836113da565b50837f459157ba24c7ab9878b165ef465fa6ae2ab42bcd8445f576be378768b0c4730984846040516107189291906114c4565b60405180910390a250505050565b6000806060600080600080600080600080600260008d8152602001908152602001600020905080600001546000036107705760405162461bcd60e51b81526004016102d0906112f5565b805460018201546003830154600484015460058501546006860154600787015460088801546002890180546001600160a01b0398891698919760ff808216986101009092048116979196919093169490939216919088906107d090611318565b80601f01602080910402602001604051908101604052809291908181526020018280546107fc90611318565b80156108495780601f1061081e57610100808354040283529160200191610849565b820191906000526020600020905b81548152906001019060200180831161082c57829003601f168201915b505050505097509a509a509a509a509a509a509a509a509a509a50509193959799509193959799565b6003546001146108945760405162461bcd60e51b81526004016102d090611352565b6002600381905560008281526020919091526040812080549091036108cb5760405162461bcd60e51b81526004016102d0906112f5565b6003600782015460ff1660058111156108e6576108e661116a565b146109035760405162461bcd60e51b81526004016102d0906112d6565b60058101546001600160a01b0316331461094c5760405162461bcd60e51b815260206004820152600a60248201526927a7262cafa12aaca2a960b11b60448201526064016102d0565b60068101805460009182905560078301805460ff1916600417905560018301546040519192916001600160a01b039091169083908381818185875af1925050503d80600081146109b8576040519150601f19603f3d011682016040523d82523d6000602084013e6109bd565b606091505b50509050806109f95760405162461bcd60e51b815260206004820152600860248201526714105657d190525360c21b60448201526064016102d0565b837fd5840651550c173a8bf246eede440a59253bc61eadb2e8887168faad2fad631d83604051610a2b91815260200190565b60405180910390a26003830154610100900460ff168015610a5657506003830154603c60ff90911610155b15610ad75760018301546001600160a01b031660009081526020819052604081208054678ac7230489e8000092839291610a919084906114f6565b909155505060018401546040518281526001600160a01b03909116907fbb1fcc2b90d06c887029eb908822f20c6cf96338f16a10e78aa48ed5ddcbb9ee9060200161063f565b505060016003555050565b6000610aed84610f74565b90506000600782015460ff166005811115610b0a57610b0a61116a565b1480610b2e57506001600782015460ff166005811115610b2c57610b2c61116a565b145b80610b5157506002600782015460ff166005811115610b4f57610b4f61116a565b145b610b6d5760405162461bcd60e51b81526004016102d0906112d6565b60648360ff161115610ba95760405162461bcd60e51b815260206004820152600560248201526452414e474560d81b60448201526064016102d0565b60038101805460ff851661ffff1990911681176101008515159081029190911790925560408051918252602082019290925285917f3c622931bf6879d7031ad90adfdad49a1c9dfd0406482e2a7b7a61c6434815759101610718565b60008381526002602052604081208054909103610c345760405162461bcd60e51b81526004016102d0906112f5565b6009810180546001810182556000918252602090912001610c568385836113da565b50837fc3552fd5eafdd121029cf45154d3d712982336cee53da63262b96c431e76cf2b84846040516107189291906114c4565b600354600114610cab5760405162461bcd60e51b81526004016102d090611352565b600260038190556000828152602091909152604081208054909103610ce25760405162461bcd60e51b81526004016102d0906112f5565b6001600782015460ff166005811115610cfd57610cfd61116a565b14610d1a5760405162461bcd60e51b81526004016102d0906112d6565b80600401543414610d565760405162461bcd60e51b8152602060048201526006602482015265105353d5539560d21b60448201526064016102d0565b60058101546001600160a01b031615610d9d5760405162461bcd60e51b81526020600482015260096024820152682420a9afa12aaca2a960b91b60448201526064016102d0565b600581018054336001600160a01b03199091168117909155346006830181905560078301805460ff1916600217905560405190815283907f4a2cd88ec7a748d5b20b3512d7249c67745777b219009075c745923684e9653d9060200160405180910390a350506001600355565b6000808211610e435760405162461bcd60e51b8152602060048201526005602482015264505249434560d81b60448201526064016102d0565b60018054906000610e5383611509565b9091555060008181526002602081905260409091208281556001810180546001600160a01b031916331790559192508101610e8f8587836113da565b506004810183905560078101805460ff19169055426008820155604051339083907f24d4dd2cd73442ce7ba8d012afd0ab2601a6b3c593b368a0a91b1bac5d5d27f290610ee190899089908990611522565b60405180910390a3509392505050565b6000610efc82610f74565b90506002600782015460ff166005811115610f1957610f1961116a565b14610f365760405162461bcd60e51b81526004016102d0906112d6565b60078101805460ff1916600317905560405182907ffcc296b8bdd64e3f1d1faadef50cb2d6550f645316330fe57cb1dd7e0612ead090600090a25050565b600081815260026020526040812080548203610fa25760405162461bcd60e51b81526004016102d0906112f5565b60018101546001600160a01b03163314610fec5760405162461bcd60e51b815260206004820152600b60248201526a27a7262cafa320a926a2a960a91b60448201526064016102d0565b92915050565b6000806040838503121561100557600080fd5b50508035926020909101359150565b60006020828403121561102657600080fd5b5035919050565b6000815180845260005b8181101561105357602081850181015186830182015201611037565b506000602082860101526020601f19601f83011685010191505092915050565b6000602080830181845280855180835260408601915060408160051b870101925083870160005b828110156110c857603f198886030184526110b685835161102d565b9450928501929085019060010161109a565b5092979650505050505050565b60008083601f8401126110e757600080fd5b50813567ffffffffffffffff8111156110ff57600080fd5b60208301915083602082850101111561111757600080fd5b9250929050565b60008060006040848603121561113357600080fd5b83359250602084013567ffffffffffffffff81111561115157600080fd5b61115d868287016110d5565b9497909650939450505050565b634e487b7160e01b600052602160045260246000fd5b8a81526001600160a01b038a81166020830152610140604083018190526000916111ac8483018d61102d565b925060ff8b16606085015289151560808501528860a085015280881660c085015250508460e0830152600684106111f357634e487b7160e01b600052602160045260246000fd5b610100820193909352610120015298975050505050505050565b60008060006060848603121561122257600080fd5b83359250602084013560ff8116811461123a57600080fd5b91506040840135801515811461124f57600080fd5b809150509250925092565b60006020828403121561126c57600080fd5b81356001600160a01b038116811461128357600080fd5b9392505050565b60008060006040848603121561129f57600080fd5b833567ffffffffffffffff8111156112b657600080fd5b6112c2868287016110d5565b909790965060209590950135949350505050565b602080825260059082015264535441544560d81b604082015260600190565b6020808252600990820152681393d517d193d5539160ba1b604082015260600190565b600181811c9082168061132c57607f821691505b60208210810361134c57634e487b7160e01b600052602260045260246000fd5b50919050565b60208082526009908201526814915153951490539560ba1b604082015260600190565b634e487b7160e01b600052604160045260246000fd5b601f8211156113d557600081815260208120601f850160051c810160208610156113b25750805b601f850160051c820191505b818110156113d1578281556001016113be565b5050505b505050565b67ffffffffffffffff8311156113f2576113f2611375565b611406836114008354611318565b8361138b565b6000601f84116001811461143a57600085156114225750838201355b600019600387901b1c1916600186901b178355611494565b600083815260209020601f19861690835b8281101561146b578685013582556020948501946001909201910161144b565b50868210156114885760001960f88860031b161c19848701351681555b505060018560011b0183555b5050505050565b81835281816020850137506000828201602090810191909152601f909101601f19169091010190565b6020815260006114d860208301848661149b565b949350505050565b634e487b7160e01b600052601160045260246000fd5b80820180821115610fec57610fec6114e0565b60006001820161151b5761151b6114e0565b5060010190565b60408152600061153660408301858761149b565b905082602083015294935050505056fea2646970667358221220ed6be01ddad7070b773417316b564fdc0eb60ff0ce35f9b7da342d2f6ceebd4364736f6c63430008140033","opcodes":"PUSH1 0x80 PUSH1 0x40 MSTORE PUSH1 0x1 DUP1 SSTORE PUSH1 0x1 PUSH1 0x3 SSTORE CALLVALUE DUP1 ISZERO PUSH2 0x19 JUMPI PUSH1 0x0 DUP1 REVERT JUMPDEST POP PUSH2 0x157C DUP1 PUSH2 0x29 PUSH1 0x0 CODECOPY PUSH1 0x0 RETURN INVALID PUSH1 0x80 PUSH1 0x40 MSTORE PUSH1 0x4 CALLDATASIZE LT PUSH2 0xA7 JUMPI PUSH1 0x0 CALLDATALOAD PUSH1 0xE0 SHR DUP1 PUSH4 0xA705D398 GT PUSH2 0x64 JUMPI DUP1 PUSH4 0xA705D398 EQ PUSH2 0x19A JUMPI DUP1 PUSH4 0xBCC27EE8 EQ PUSH2 0x1BA JUMPI DUP1 PUSH4 0xBFEFEC1F EQ PUSH2 0x1DA JUMPI DUP1 PUSH4 0xC9C31AF5 EQ PUSH2 0x215 JUMPI DUP1 PUSH4 0xE1162306 EQ PUSH2 0x228 JUMPI DUP1 PUSH4 0xEB826A5F EQ PUSH2 0x248 JUMPI PUSH1 0x0 DUP1 REVERT JUMPDEST DUP1 PUSH4 0x21664650 EQ PUSH2 0xAC JUMPI DUP1 PUSH4 0x37C5F3B6 EQ PUSH2 0xCE JUMPI DUP1 PUSH4 0x39292763 EQ PUSH2 0x104 JUMPI DUP1 PUSH4 0x53C8388E EQ PUSH2 0x124 JUMPI DUP1 PUSH4 0x5AC44282 EQ PUSH2 0x144 JUMPI DUP1 PUSH4 0xA0A58683 EQ PUSH2 0x17A JUMPI JUMPDEST PUSH1 0x0 DUP1 REVERT JUMPDEST CALLVALUE DUP1 ISZERO PUSH2 0xB8 JUMPI PUSH1 0x0 DUP1 REVERT JUMPDEST POP PUSH2 0xCC PUSH2 0xC7 CALLDATASIZE PUSH1 0x4 PUSH2 0xFF2 JUMP JUMPDEST PUSH2 0x268 JUMP JUMPDEST STOP JUMPDEST CALLVALUE DUP1 ISZERO PUSH2 0xDA JUMPI PUSH1 0x0 DUP1 REVERT JUMPDEST POP PUSH2 0xEE PUSH2 0xE9 CALLDATASIZE PUSH1 0x4 PUSH2 0x1014 JUMP JUMPDEST PUSH2 0x361 JUMP JUMPDEST PUSH1 0x40 MLOAD PUSH2 0xFB SWAP2 SWAP1 PUSH2 0x1073 JUMP JUMPDEST PUSH1 0x40 MLOAD DUP1 SWAP2 SUB SWAP1 RETURN JUMPDEST CALLVALUE DUP1 ISZERO PUSH2 0x110 JUMPI PUSH1 0x0 DUP1 REVERT JUMPDEST POP PUSH2 0xCC PUSH2 0x11F CALLDATASIZE PUSH1 0x4 PUSH2 0x1014 JUMP JUMPDEST PUSH2 0x46D JUMP JUMPDEST CALLVALUE DUP1 ISZERO PUSH2 0x130 JUMPI PUSH1 0x0 DUP1 REVERT JUMPDEST POP PUSH2 0xCC PUSH2 0x13F CALLDATASIZE PUSH1 0x4 PUSH2 0x111E JUMP JUMPDEST PUSH2 0x653 JUMP JUMPDEST CALLVALUE DUP1 ISZERO PUSH2 0x150 JUMPI PUSH1 0x0 DUP1 REVERT JUMPDEST POP PUSH2 0x164 PUSH2 0x15F CALLDATASIZE PUSH1 0x4 PUSH2 0x1014 JUMP JUMPDEST PUSH2 0x726 JUMP JUMPDEST PUSH1 0x40 MLOAD PUSH2 0xFB SWAP11 SWAP10 SWAP9 SWAP8 SWAP7 SWAP6 SWAP5 SWAP4 SWAP3 SWAP2 SWAP1 PUSH2 0x1180 JUMP JUMPDEST CALLVALUE DUP1 ISZERO PUSH2 0x186 JUMPI PUSH1 0x0 DUP1 REVERT JUMPDEST POP PUSH2 0xCC PUSH2 0x195 CALLDATASIZE PUSH1 0x4 PUSH2 0x1014 JUMP JUMPDEST PUSH2 0x872 JUMP JUMPDEST CALLVALUE DUP1 ISZERO PUSH2 0x1A6 JUMPI PUSH1 0x0 DUP1 REVERT JUMPDEST POP PUSH2 0xCC PUSH2 0x1B5 CALLDATASIZE PUSH1 0x4 PUSH2 0x120D JUMP JUMPDEST PUSH2 0xAE2 JUMP JUMPDEST CALLVALUE DUP1 ISZERO PUSH2 0x1C6 JUMPI PUSH1 0x0 DUP1 REVERT JUMPDEST POP PUSH2 0xCC PUSH2 0x1D5 CALLDATASIZE PUSH1 0x4 PUSH2 0x111E JUMP JUMPDEST PUSH2 0xC05 JUMP JUMPDEST CALLVALUE DUP1 ISZERO PUSH2 0x1E6 JUMPI PUSH1 0x0 DUP1 REVERT JUMPDEST POP PUSH2 0x207 PUSH2 0x1F5 CALLDATASIZE PUSH1 0x4 PUSH2 0x125A JUMP JUMPDEST PUSH1 0x0 PUSH1 0x20 DUP2 SWAP1 MSTORE SWAP1 DUP2 MSTORE PUSH1 0x40 SWAP1 KECCAK256 SLOAD DUP2 JUMP JUMPDEST PUSH1 0x40 MLOAD SWAP1 DUP2 MSTORE PUSH1 0x20 ADD PUSH2 0xFB JUMP JUMPDEST PUSH2 0xCC PUSH2 0x223 CALLDATASIZE PUSH1 0x4 PUSH2 0x1014 JUMP JUMPDEST PUSH2 0xC89 JUMP JUMPDEST CALLVALUE DUP1 ISZERO PUSH2 0x234 JUMPI PUSH1 0x0 DUP1 REVERT JUMPDEST POP PUSH2 0x207 PUSH2 0x243 CALLDATASIZE PUSH1 0x4 PUSH2 0x128A JUMP JUMPDEST PUSH2 0xE0A JUMP JUMPDEST CALLVALUE DUP1 ISZERO PUSH2 0x254 JUMPI PUSH1 0x0 DUP1 REVERT JUMPDEST POP PUSH2 0xCC PUSH2 0x263 CALLDATASIZE PUSH1 0x4 PUSH2 0x1014 JUMP JUMPDEST PUSH2 0xEF1 JUMP JUMPDEST PUSH1 0x0 PUSH2 0x273 DUP4 PUSH2 0xF74 JUMP JUMPDEST SWAP1 POP PUSH1 0x0 PUSH1 0x7 DUP3 ADD SLOAD PUSH1 0xFF AND PUSH1 0x5 DUP2 GT ISZERO PUSH2 0x290 JUMPI PUSH2 0x290 PUSH2 0x116A JUMP JUMPDEST EQ DUP1 PUSH2 0x2B4 JUMPI POP PUSH1 0x1 PUSH1 0x7 DUP3 ADD SLOAD PUSH1 0xFF AND PUSH1 0x5 DUP2 GT ISZERO PUSH2 0x2B2 JUMPI PUSH2 0x2B2 PUSH2 0x116A JUMP JUMPDEST EQ JUMPDEST PUSH2 0x2D9 JUMPI PUSH1 0x40 MLOAD PUSH3 0x461BCD PUSH1 0xE5 SHL DUP2 MSTORE PUSH1 0x4 ADD PUSH2 0x2D0 SWAP1 PUSH2 0x12D6 JUMP JUMPDEST PUSH1 0x40 MLOAD DUP1 SWAP2 SUB SWAP1 REVERT JUMPDEST PUSH1 0x0 DUP3 GT PUSH2 0x311 JUMPI PUSH1 0x40 MLOAD PUSH3 0x461BCD PUSH1 0xE5 SHL DUP2 MSTORE PUSH1 0x20 PUSH1 0x4 DUP3 ADD MSTORE PUSH1 0x5 PUSH1 0x24 DUP3 ADD MSTORE PUSH5 0x5052494345 PUSH1 0xD8 SHL PUSH1 0x44 DUP3 ADD MSTORE PUSH1 0x64 ADD PUSH2 0x2D0 JUMP JUMPDEST PUSH1 0x4 DUP2 ADD DUP3 SWAP1 SSTORE PUSH1 0x7 DUP2 ADD DUP1 SLOAD PUSH1 0xFF NOT AND PUSH1 0x1 OR SWAP1 SSTORE PUSH1 0x40 MLOAD DUP3 DUP2 MSTORE DUP4 SWAP1 PUSH32 0x7E9DC4A348B468A10AD723EC91C86BAA882B01345313C66E72CC37F5ABB5F54F SWAP1 PUSH1 0x20 ADD PUSH1 0x40 MLOAD DUP1 SWAP2 SUB SWAP1 LOG2 POP POP POP JUMP JUMPDEST PUSH1 0x0 DUP2 DUP2 MSTORE PUSH1 0x2 PUSH1 0x20 MSTORE PUSH1 0x40 DUP2 KECCAK256 DUP1 SLOAD PUSH1 0x60 SWAP3 SUB PUSH2 0x391 JUMPI PUSH1 0x40 MLOAD PUSH3 0x461BCD PUSH1 0xE5 SHL DUP2 MSTORE PUSH1 0x4 ADD PUSH2 0x2D0 SWAP1 PUSH2 0x12F5 JUMP JUMPDEST DUP1 PUSH1 0x9 ADD DUP1 SLOAD DUP1 PUSH1 0x20 MUL PUSH1 0x20 ADD PUSH1 0x40 MLOAD SWAP1 DUP2 ADD PUSH1 0x40 MSTORE DUP1 SWAP3 SWAP2 SWAP1 DUP2 DUP2 MSTORE PUSH1 0x20 ADD PUSH1 0x0 SWAP1 JUMPDEST DUP3 DUP3 LT ISZERO PUSH2 0x461 JUMPI DUP4 DUP3 SWAP1 PUSH1 0x0 MSTORE PUSH1 0x20 PUSH1 0x0 KECCAK256 ADD DUP1 SLOAD PUSH2 0x3D4 SWAP1 PUSH2 0x1318 JUMP JUMPDEST DUP1 PUSH1 0x1F ADD PUSH1 0x20 DUP1 SWAP2 DIV MUL PUSH1 0x20 ADD PUSH1 0x40 MLOAD SWAP1 DUP2 ADD PUSH1 0x40 MSTORE DUP1 SWAP3 SWAP2 SWAP1 DUP2 DUP2 MSTORE PUSH1 0x20 ADD DUP3 DUP1 SLOAD PUSH2 0x400 SWAP1 PUSH2 0x1318 JUMP JUMPDEST DUP1 ISZERO PUSH2 0x44D JUMPI DUP1 PUSH1 0x1F LT PUSH2 0x422 JUMPI PUSH2 0x100 DUP1 DUP4 SLOAD DIV MUL DUP4 MSTORE SWAP2 PUSH1 0x20 ADD SWAP2 PUSH2 0x44D JUMP JUMPDEST DUP3 ADD SWAP2 SWAP1 PUSH1 0x0 MSTORE PUSH1 0x20 PUSH1 0x0 KECCAK256 SWAP1 JUMPDEST DUP2 SLOAD DUP2 MSTORE SWAP1 PUSH1 0x1 ADD SWAP1 PUSH1 0x20 ADD DUP1 DUP4 GT PUSH2 0x430 JUMPI DUP3 SWAP1 SUB PUSH1 0x1F AND DUP3 ADD SWAP2 JUMPDEST POP POP POP POP POP DUP2 MSTORE PUSH1 0x20 ADD SWAP1 PUSH1 0x1 ADD SWAP1 PUSH2 0x3B5 JUMP JUMPDEST POP POP POP POP SWAP2 POP POP SWAP2 SWAP1 POP JUMP JUMPDEST PUSH1 0x3 SLOAD PUSH1 0x1 EQ PUSH2 0x48F JUMPI PUSH1 0x40 MLOAD PUSH3 0x461BCD PUSH1 0xE5 SHL DUP2 MSTORE PUSH1 0x4 ADD PUSH2 0x2D0 SWAP1 PUSH2 0x1352 JUMP JUMPDEST PUSH1 0x2 PUSH1 0x3 DUP2 SWAP1 SSTORE PUSH1 0x0 DUP3 DUP2 MSTORE PUSH1 0x20 SWAP2 SWAP1 SWAP2 MSTORE PUSH1 0x40 DUP2 KECCAK256 DUP1 SLOAD SWAP1 SWAP2 SUB PUSH2 0x4C6 JUMPI PUSH1 0x40 MLOAD PUSH3 0x461BCD PUSH1 0xE5 SHL DUP2 MSTORE PUSH1 0x4 ADD PUSH2 0x2D0 SWAP1 PUSH2 0x12F5 JUMP JUMPDEST PUSH1 0x2 PUSH1 0x7 DUP3 ADD SLOAD PUSH1 0xFF AND PUSH1 0x5 DUP2 GT ISZERO PUSH2 0x4E1 JUMPI PUSH2 0x4E1 PUSH2 0x116A JUMP JUMPDEST EQ PUSH2 0x4FE JUMPI PUSH1 0x40 MLOAD PUSH3 0x461BCD PUSH1 0xE5 SHL DUP2 MSTORE PUSH1 0x4 ADD PUSH2 0x2D0 SWAP1 PUSH2 0x12D6 JUMP JUMPDEST PUSH1 0x5 DUP2 ADD SLOAD PUSH1 0x1 PUSH1 0x1 PUSH1 0xA0 SHL SUB AND CALLER EQ DUP1 PUSH2 0x525 JUMPI POP PUSH1 0x1 DUP2 ADD SLOAD PUSH1 0x1 PUSH1 0x1 PUSH1 0xA0 SHL SUB AND CALLER EQ JUMPDEST PUSH2 0x55A JUMPI PUSH1 0x40 MLOAD PUSH3 0x461BCD PUSH1 0xE5 SHL DUP2 MSTORE PUSH1 0x4 ADD PUSH2 0x2D0 SWAP1 PUSH1 0x20 DUP1 DUP3 MSTORE PUSH1 0x4 SWAP1 DUP3 ADD MSTORE PUSH4 0x524F4C45 PUSH1 0xE0 SHL PUSH1 0x40 DUP3 ADD MSTORE PUSH1 0x60 ADD SWAP1 JUMP JUMPDEST PUSH1 0x6 DUP2 ADD DUP1 SLOAD PUSH1 0x5 DUP1 DUP5 ADD SLOAD PUSH1 0x0 SWAP4 DUP5 SWAP1 SSTORE PUSH1 0x7 DUP6 ADD DUP1 SLOAD PUSH1 0xFF NOT AND SWAP1 SWAP3 OR SWAP1 SWAP2 SSTORE PUSH1 0x40 MLOAD SWAP2 SWAP3 PUSH1 0x1 PUSH1 0x1 PUSH1 0xA0 SHL SUB SWAP1 SWAP2 AND SWAP2 DUP3 SWAP1 DUP5 SWAP1 DUP4 DUP2 DUP2 DUP2 DUP6 DUP8 GAS CALL SWAP3 POP POP POP RETURNDATASIZE DUP1 PUSH1 0x0 DUP2 EQ PUSH2 0x5C9 JUMPI PUSH1 0x40 MLOAD SWAP2 POP PUSH1 0x1F NOT PUSH1 0x3F RETURNDATASIZE ADD AND DUP3 ADD PUSH1 0x40 MSTORE RETURNDATASIZE DUP3 MSTORE RETURNDATASIZE PUSH1 0x0 PUSH1 0x20 DUP5 ADD RETURNDATACOPY PUSH2 0x5CE JUMP JUMPDEST PUSH1 0x60 SWAP2 POP JUMPDEST POP POP SWAP1 POP DUP1 PUSH2 0x60D JUMPI PUSH1 0x40 MLOAD PUSH3 0x461BCD PUSH1 0xE5 SHL DUP2 MSTORE PUSH1 0x20 PUSH1 0x4 DUP3 ADD MSTORE PUSH1 0xB PUSH1 0x24 DUP3 ADD MSTORE PUSH11 0x14915195539117D1905253 PUSH1 0xAA SHL PUSH1 0x44 DUP3 ADD MSTORE PUSH1 0x64 ADD PUSH2 0x2D0 JUMP JUMPDEST DUP5 PUSH32 0xB7C1F9298A18C36AF08BD57EABBFBEB04695F24D0438F67614741EC15FB5C4A9 DUP5 PUSH1 0x40 MLOAD PUSH2 0x63F SWAP2 DUP2 MSTORE PUSH1 0x20 ADD SWAP1 JUMP JUMPDEST PUSH1 0x40 MLOAD DUP1 SWAP2 SUB SWAP1 LOG2 POP POP PUSH1 0x1 PUSH1 0x3 SSTORE POP POP POP JUMP JUMPDEST PUSH1 0x0 PUSH2 0x65E DUP5 PUSH2 0xF74 JUMP JUMPDEST SWAP1 POP PUSH1 0x4 PUSH1 0x7 DUP3 ADD SLOAD PUSH1 0xFF AND PUSH1 0x5 DUP2 GT ISZERO PUSH2 0x67B JUMPI PUSH2 0x67B PUSH2 0x116A JUMP JUMPDEST EQ ISZERO DUP1 ISZERO PUSH2 0x6A2 JUMPI POP PUSH1 0x5 PUSH1 0x7 DUP3 ADD SLOAD PUSH1 0xFF AND PUSH1 0x5 DUP2 GT ISZERO PUSH2 0x69F JUMPI PUSH2 0x69F PUSH2 0x116A JUMP JUMPDEST EQ ISZERO JUMPDEST PUSH2 0x6D6 JUMPI PUSH1 0x40 MLOAD PUSH3 0x461BCD PUSH1 0xE5 SHL DUP2 MSTORE PUSH1 0x20 PUSH1 0x4 DUP3 ADD MSTORE PUSH1 0x5 PUSH1 0x24 DUP3 ADD MSTORE PUSH5 0x1192539053 PUSH1 0xDA SHL PUSH1 0x44 DUP3 ADD MSTORE PUSH1 0x64 ADD PUSH2 0x2D0 JUMP JUMPDEST PUSH1 0x2 DUP2 ADD PUSH2 0x6E5 DUP4 DUP6 DUP4 PUSH2 0x13DA JUMP JUMPDEST POP DUP4 PUSH32 0x459157BA24C7AB9878B165EF465FA6AE2AB42BCD8445F576BE378768B0C47309 DUP5 DUP5 PUSH1 0x40 MLOAD PUSH2 0x718 SWAP3 SWAP2 SWAP1 PUSH2 0x14C4 JUMP JUMPDEST PUSH1 0x40 MLOAD DUP1 SWAP2 SUB SWAP1 LOG2 POP POP POP POP JUMP JUMPDEST PUSH1 0x0 DUP1 PUSH1 0x60 PUSH1 0x0 DUP1 PUSH1 0x0 DUP1 PUSH1 0x0 DUP1 PUSH1 0x0 DUP1 PUSH1 0x2 PUSH1 0x0 DUP14 DUP2 MSTORE PUSH1 0x20 ADD SWAP1 DUP2 MSTORE PUSH1 0x20 ADD PUSH1 0x0 KECCAK256 SWAP1 POP DUP1 PUSH1 0x0 ADD SLOAD PUSH1 0x0 SUB PUSH2 0x770 JUMPI PUSH1 0x40 MLOAD PUSH3 0x461BCD PUSH1 0xE5 SHL DUP2 MSTORE PUSH1 0x4 ADD PUSH2 0x2D0 SWAP1 PUSH2 0x12F5 JUMP JUMPDEST DUP1 SLOAD PUSH1 0x1 DUP3 ADD SLOAD PUSH1 0x3 DUP4 ADD SLOAD PUSH1 0x4 DUP5 ADD SLOAD PUSH1 0x5 DUP6 ADD SLOAD PUSH1 0x6 DUP7 ADD SLOAD PUSH1 0x7 DUP8 ADD SLOAD PUSH1 0x8 DUP9 ADD SLOAD PUSH1 0x2 DUP10 ADD DUP1 SLOAD PUSH1 0x1 PUSH1 0x1 PUSH1 0xA0 SHL SUB SWAP9 DUP10 AND SWAP9 SWAP2 SWAP8 PUSH1 0xFF DUP1 DUP3 AND SWAP9 PUSH2 0x100 SWAP1 SWAP3 DIV DUP2 AND SWAP8 SWAP2 SWAP7 SWAP2 SWAP1 SWAP4 AND SWAP5 SWAP1 SWAP4 SWAP3 AND SWAP2 SWAP1 DUP9 SWAP1 PUSH2 0x7D0 SWAP1 PUSH2 0x1318 JUMP JUMPDEST DUP1 PUSH1 0x1F ADD PUSH1 0x20 DUP1 SWAP2 DIV MUL PUSH1 0x20 ADD PUSH1 0x40 MLOAD SWAP1 DUP2 ADD PUSH1 0x40 MSTORE DUP1 SWAP3 SWAP2 SWAP1 DUP2 DUP2 MSTORE PUSH1 0x20 ADD DUP3 DUP1 SLOAD PUSH2 0x7FC SWAP1 PUSH2 0x1318 JUMP JUMPDEST DUP1 ISZERO PUSH2 0x849 JUMPI DUP1 PUSH1 0x1F LT PUSH2 0x81E JUMPI PUSH2 0x100 DUP1 DUP4 SLOAD DIV MUL DUP4 MSTORE SWAP2 PUSH1 0x20 ADD SWAP2 PUSH2 0x849 JUMP JUMPDEST DUP3 ADD SWAP2 SWAP1 PUSH1 0x0 MSTORE PUSH1 0x20 PUSH1 0x0 KECCAK256 SWAP1 JUMPDEST DUP2 SLOAD DUP2 MSTORE SWAP1 PUSH1 0x1 ADD SWAP1 PUSH1 0x20 ADD DUP1 DUP4 GT PUSH2 0x82C JUMPI DUP3 SWAP1 SUB PUSH1 0x1F AND DUP3 ADD SWAP2 JUMPDEST POP POP POP POP POP SWAP8 POP SWAP11 POP SWAP11 POP SWAP11 POP SWAP11 POP SWAP11 POP SWAP11 POP SWAP11 POP SWAP11 POP SWAP11 POP SWAP11 POP POP SWAP2 SWAP4 SWAP6 SWAP8 SWAP10 POP SWAP2 SWAP4 SWAP6 SWAP8 SWAP10 JUMP JUMPDEST PUSH1 0x3 SLOAD PUSH1 0x1 EQ PUSH2 0x894 JUMPI PUSH1 0x40 MLOAD PUSH3 0x461BCD PUSH1 0xE5 SHL DUP2 MSTORE PUSH1 0x4 ADD PUSH2 0x2D0 SWAP1 PUSH2 0x1352 JUMP JUMPDEST PUSH1 0x2 PUSH1 0x3 DUP2 SWAP1 SSTORE PUSH1 0x0 DUP3 DUP2 MSTORE PUSH1 0x20 SWAP2 SWAP1 SWAP2 MSTORE PUSH1 0x40 DUP2 KECCAK256 DUP1 SLOAD SWAP1 SWAP2 SUB PUSH2 0x8CB JUMPI PUSH1 0x40 MLOAD PUSH3 0x461BCD PUSH1 0xE5 SHL DUP2 MSTORE PUSH1 0x4 ADD PUSH2 0x2D0 SWAP1 PUSH2 0x12F5 JUMP JUMPDEST PUSH1 0x3 PUSH1 0x7 DUP3 ADD SLOAD PUSH1 0xFF AND PUSH1 0x5 DUP2 GT ISZERO PUSH2 0x8E6 JUMPI PUSH2 0x8E6 PUSH2 0x116A JUMP JUMPDEST EQ PUSH2 0x903 JUMPI PUSH1 0x40 MLOAD PUSH3 0x461BCD PUSH1 0xE5 SHL DUP2 MSTORE PUSH1 0x4 ADD PUSH2 0x2D0 SWAP1 PUSH2 0x12D6 JUMP JUMPDEST PUSH1 0x5 DUP2 ADD SLOAD PUSH1 0x1 PUSH1 0x1 PUSH1 0xA0 SHL SUB AND CALLER EQ PUSH2 0x94C JUMPI PUSH1 0x40 MLOAD PUSH3 0x461BCD PUSH1 0xE5 SHL DUP2 MSTORE PUSH1 0x20 PUSH1 0x4 DUP3 ADD MSTORE PUSH1 0xA PUSH1 0x24 DUP3 ADD MSTORE PUSH10 0x27A7262CAFA12AACA2A9 PUSH1 0xB1 SHL PUSH1 0x44 DUP3 ADD MSTORE PUSH1 0x64 ADD PUSH2 0x2D0 JUMP JUMPDEST PUSH1 0x6 DUP2 ADD DUP1 SLOAD PUSH1 0x0 SWAP2 DUP3 SWAP1 SSTORE PUSH1 0x7 DUP4 ADD DUP1 SLOAD PUSH1 0xFF NOT AND PUSH1 0x4 OR SWAP1 SSTORE PUSH1 0x1 DUP4 ADD SLOAD PUSH1 0x40 MLOAD SWAP2 SWAP3 SWAP2 PUSH1 0x1 PUSH1 0x1 PUSH1 0xA0 SHL SUB SWAP1 SWAP2 AND SWAP1 DUP4 SWAP1 DUP4 DUP2 DUP2 DUP2 DUP6 DUP8 GAS CALL SWAP3 POP POP POP RETURNDATASIZE DUP1 PUSH1 0x0 DUP2 EQ PUSH2 0x9B8 JUMPI PUSH1 0x40 MLOAD SWAP2 POP PUSH1 0x1F NOT PUSH1 0x3F RETURNDATASIZE ADD AND DUP3 ADD PUSH1 0x40 MSTORE RETURNDATASIZE DUP3 MSTORE RETURNDATASIZE PUSH1 0x0 PUSH1 0x20 DUP5 ADD RETURNDATACOPY PUSH2 0x9BD JUMP JUMPDEST PUSH1 0x60 SWAP2 POP JUMPDEST POP POP SWAP1 POP DUP1 PUSH2 0x9F9 JUMPI PUSH1 0x40 MLOAD PUSH3 0x461BCD PUSH1 0xE5 SHL DUP2 MSTORE PUSH1 0x20 PUSH1 0x4 DUP3 ADD MSTORE PUSH1 0x8 PUSH1 0x24 DUP3 ADD MSTORE PUSH8 0x14105657D1905253 PUSH1 0xC2 SHL PUSH1 0x44 DUP3 ADD MSTORE PUSH1 0x64 ADD PUSH2 0x2D0 JUMP JUMPDEST DUP4 PUSH32 0xD5840651550C173A8BF246EEDE440A59253BC61EADB2E8887168FAAD2FAD631D DUP4 PUSH1 0x40 MLOAD PUSH2 0xA2B SWAP2 DUP2 MSTORE PUSH1 0x20 ADD SWAP1 JUMP JUMPDEST PUSH1 0x40 MLOAD DUP1 SWAP2 SUB SWAP1 LOG2 PUSH1 0x3 DUP4 ADD SLOAD PUSH2 0x100 SWAP1 DIV PUSH1 0xFF AND DUP1 ISZERO PUSH2 0xA56 JUMPI POP PUSH1 0x3 DUP4 ADD SLOAD PUSH1 0x3C PUSH1 0xFF SWAP1 SWAP2 AND LT ISZERO JUMPDEST ISZERO PUSH2 0xAD7 JUMPI PUSH1 0x1 DUP4 ADD SLOAD PUSH1 0x1 PUSH1 0x1 PUSH1 0xA0 SHL SUB AND PUSH1 0x0 SWAP1 DUP2 MSTORE PUSH1 0x20 DUP2 SWAP1 MSTORE PUSH1 0x40 DUP2 KECCAK256 DUP1 SLOAD PUSH8 0x8AC7230489E80000 SWAP3 DUP4 SWAP3 SWAP2 PUSH2 0xA91 SWAP1 DUP5 SWAP1 PUSH2 0x14F6 JUMP JUMPDEST SWAP1 SWAP2 SSTORE POP POP PUSH1 0x1 DUP5 ADD SLOAD PUSH1 0x40 MLOAD DUP3 DUP2 MSTORE PUSH1 0x1 PUSH1 0x1 PUSH1 0xA0 SHL SUB SWAP1 SWAP2 AND SWAP1 PUSH32 0xBB1FCC2B90D06C887029EB908822F20C6CF96338F16A10E78AA48ED5DDCBB9EE SWAP1 PUSH1 0x20 ADD PUSH2 0x63F JUMP JUMPDEST POP POP PUSH1 0x1 PUSH1 0x3 SSTORE POP POP JUMP JUMPDEST PUSH1 0x0 PUSH2 0xAED DUP5 PUSH2 0xF74 JUMP JUMPDEST SWAP1 POP PUSH1 0x0 PUSH1 0x7 DUP3 ADD SLOAD PUSH1 0xFF AND PUSH1 0x5 DUP2 GT ISZERO PUSH2 0xB0A JUMPI PUSH2 0xB0A PUSH2 0x116A JUMP JUMPDEST EQ DUP1 PUSH2 0xB2E JUMPI POP PUSH1 0x1 PUSH1 0x7 DUP3 ADD SLOAD PUSH1 0xFF AND PUSH1 0x5 DUP2 GT ISZERO PUSH2 0xB2C JUMPI PUSH2 0xB2C PUSH2 0x116A JUMP JUMPDEST EQ JUMPDEST DUP1 PUSH2 0xB51 JUMPI POP PUSH1 0x2 PUSH1 0x7 DUP3 ADD SLOAD PUSH1 0xFF AND PUSH1 0x5 DUP2 GT ISZERO PUSH2 0xB4F JUMPI PUSH2 0xB4F PUSH2 0x116A JUMP JUMPDEST EQ JUMPDEST PUSH2 0xB6D JUMPI PUSH1 0x40 MLOAD PUSH3 0x461BCD PUSH1 0xE5 SHL DUP2 MSTORE PUSH1 0x4 ADD PUSH2 0x2D0 SWAP1 PUSH2 0x12D6 JUMP JUMPDEST PUSH1 0x64 DUP4 PUSH1 0xFF AND GT ISZERO PUSH2 0xBA9 JUMPI PUSH1 0x40 MLOAD PUSH3 0x461BCD PUSH1 0xE5 SHL DUP2 MSTORE PUSH1 0x20 PUSH1 0x4 DUP3 ADD MSTORE PUSH1 0x5 PUSH1 0x24 DUP3 ADD MSTORE PUSH5 0x52414E4745 PUSH1 0xD8 SHL PUSH1 0x44 DUP3 ADD MSTORE PUSH1 0x64 ADD PUSH2 0x2D0 JUMP JUMPDEST PUSH1 0x3 DUP2 ADD DUP1 SLOAD PUSH1 0xFF DUP6 AND PUSH2 0xFFFF NOT SWAP1 SWAP2 AND DUP2 OR PUSH2 0x100 DUP6 ISZERO ISZERO SWAP1 DUP2 MUL SWAP2 SWAP1 SWAP2 OR SWAP1 SWAP3 SSTORE PUSH1 0x40 DUP1 MLOAD SWAP2 DUP3 MSTORE PUSH1 0x20 DUP3 ADD SWAP3 SWAP1 SWAP3 MSTORE DUP6 SWAP2 PUSH32 0x3C622931BF6879D7031AD90ADFDAD49A1C9DFD0406482E2A7B7A61C643481575 SWAP2 ADD PUSH2 0x718 JUMP JUMPDEST PUSH1 0x0 DUP4 DUP2 MSTORE PUSH1 0x2 PUSH1 0x20 MSTORE PUSH1 0x40 DUP2 KECCAK256 DUP1 SLOAD SWAP1 SWAP2 SUB PUSH2 0xC34 JUMPI PUSH1 0x40 MLOAD PUSH3 0x461BCD PUSH1 0xE5 SHL DUP2 MSTORE PUSH1 0x4 ADD PUSH2 0x2D0 SWAP1 PUSH2 0x12F5 JUMP JUMPDEST PUSH1 0x9 DUP2 ADD DUP1 SLOAD PUSH1 0x1 DUP2 ADD DUP3 SSTORE PUSH1 0x0 SWAP2 DUP3 MSTORE PUSH1 0x20 SWAP1 SWAP2 KECCAK256 ADD PUSH2 0xC56 DUP4 DUP6 DUP4 PUSH2 0x13DA JUMP JUMPDEST POP DUP4 PUSH32 0xC3552FD5EAFDD121029CF45154D3D712982336CEE53DA63262B96C431E76CF2B DUP5 DUP5 PUSH1 0x40 MLOAD PUSH2 0x718 SWAP3 SWAP2 SWAP1 PUSH2 0x14C4 JUMP JUMPDEST PUSH1 0x3 SLOAD PUSH1 0x1 EQ PUSH2 0xCAB JUMPI PUSH1 0x40 MLOAD PUSH3 0x461BCD PUSH1 0xE5 SHL DUP2 MSTORE PUSH1 0x4 ADD PUSH2 0x2D0 SWAP1 PUSH2 0x1352 JUMP JUMPDEST PUSH1 0x2 PUSH1 0x3 DUP2 SWAP1 SSTORE PUSH1 0x0 DUP3 DUP2 MSTORE PUSH1 0x20 SWAP2 SWAP1 SWAP2 MSTORE PUSH1 0x40 DUP2 KECCAK256 DUP1 SLOAD SWAP1 SWAP2 SUB PUSH2 0xCE2 JUMPI PUSH1 0x40 MLOAD PUSH3 0x461BCD PUSH1 0xE5 SHL DUP2 MSTORE PUSH1 0x4 ADD PUSH2 0x2D0 SWAP1 PUSH2 0x12F5 JUMP JUMPDEST PUSH1 0x1 PUSH1 0x7 DUP3 ADD SLOAD PUSH1 0xFF AND PUSH1 0x5 DUP2 GT ISZERO PUSH2 0xCFD JUMPI PUSH2 0xCFD PUSH2 0x116A JUMP JUMPDEST EQ PUSH2 0xD1A JUMPI PUSH1 0x40 MLOAD PUSH3 0x461BCD PUSH1 0xE5 SHL DUP2 MSTORE PUSH1 0x4 ADD PUSH2 0x2D0 SWAP1 PUSH2 0x12D6 JUMP JUMPDEST DUP1 PUSH1 0x4 ADD SLOAD CALLVALUE EQ PUSH2 0xD56 JUMPI PUSH1 0x40 MLOAD PUSH3 0x461BCD PUSH1 0xE5 SHL DUP2 MSTORE PUSH1 0x20 PUSH1 0x4 DUP3 ADD MSTORE PUSH1 0x6 PUSH1 0x24 DUP3 ADD MSTORE PUSH6 0x105353D55395 PUSH1 0xD2 SHL PUSH1 0x44 DUP3 ADD MSTORE PUSH1 0x64 ADD PUSH2 0x2D0 JUMP JUMPDEST PUSH1 0x5 DUP2 ADD SLOAD PUSH1 0x1 PUSH1 0x1 PUSH1 0xA0 SHL SUB AND ISZERO PUSH2 0xD9D JUMPI PUSH1 0x40 MLOAD PUSH3 0x461BCD PUSH1 0xE5 SHL DUP2 MSTORE PUSH1 0x20 PUSH1 0x4 DUP3 ADD MSTORE PUSH1 0x9 PUSH1 0x24 DUP3 ADD MSTORE PUSH9 0x2420A9AFA12AACA2A9 PUSH1 0xB9 SHL PUSH1 0x44 DUP3 ADD MSTORE PUSH1 0x64 ADD PUSH2 0x2D0 JUMP JUMPDEST PUSH1 0x5 DUP2 ADD DUP1 SLOAD CALLER PUSH1 0x1 PUSH1 0x1 PUSH1 0xA0 SHL SUB NOT SWAP1 SWAP2 AND DUP2 OR SWAP1 SWAP2 SSTORE CALLVALUE PUSH1 0x6 DUP4 ADD DUP2 SWAP1 SSTORE PUSH1 0x7 DUP4 ADD DUP1 SLOAD PUSH1 0xFF NOT AND PUSH1 0x2 OR SWAP1 SSTORE PUSH1 0x40 MLOAD SWAP1 DUP2 MSTORE DUP4 SWAP1 PUSH32 0x4A2CD88EC7A748D5B20B3512D7249C67745777B219009075C745923684E9653D SWAP1 PUSH1 0x20 ADD PUSH1 0x40 MLOAD DUP1 SWAP2 SUB SWAP1 LOG3 POP POP PUSH1 0x1 PUSH1 0x3 SSTORE JUMP JUMPDEST PUSH1 0x0 DUP1 DUP3 GT PUSH2 0xE43 JUMPI PUSH1 0x40 MLOAD PUSH3 0x461BCD PUSH1 0xE5 SHL DUP2 MSTORE PUSH1 0x20 PUSH1 0x4 DUP3 ADD MSTORE PUSH1 0x5 PUSH1 0x24 DUP3 ADD MSTORE PUSH5 0x5052494345 PUSH1 0xD8 SHL PUSH1 0x44 DUP3 ADD MSTORE PUSH1 0x64 ADD PUSH2 0x2D0 JUMP JUMPDEST PUSH1 0x1 DUP1 SLOAD SWAP1 PUSH1 0x0 PUSH2 0xE53 DUP4 PUSH2 0x1509 JUMP JUMPDEST SWAP1 SWAP2 SSTORE POP PUSH1 0x0 DUP2 DUP2 MSTORE PUSH1 0x2 PUSH1 0x20 DUP2 SWAP1 MSTORE PUSH1 0x40 SWAP1 SWAP2 KECCAK256 DUP3 DUP2 SSTORE PUSH1 0x1 DUP2 ADD DUP1 SLOAD PUSH1 0x1 PUSH1 0x1 PUSH1 0xA0 SHL SUB NOT AND CALLER OR SWAP1 SSTORE SWAP2 SWAP3 POP DUP2 ADD PUSH2 0xE8F DUP6 DUP8 DUP4 PUSH2 0x13DA JUMP JUMPDEST POP PUSH1 0x4 DUP2 ADD DUP4 SWAP1 SSTORE PUSH1 0x7 DUP2 ADD DUP1 SLOAD PUSH1 0xFF NOT AND SWAP1 SSTORE TIMESTAMP PUSH1 0x8 DUP3 ADD SSTORE PUSH1 0x40 MLOAD CALLER SWAP1 DUP4 SWAP1 PUSH32 0x24D4DD2CD73442CE7BA8D012AFD0AB2601A6B3C593B368A0A91B1BAC5D5D27F2 SWAP1 PUSH2 0xEE1 SWAP1 DUP10 SWAP1 DUP10 SWAP1 DUP10 SWAP1 PUSH2 0x1522 JUMP JUMPDEST PUSH1 0x40 MLOAD DUP1 SWAP2 SUB SWAP1 LOG3 POP SWAP4 SWAP3 POP POP POP JUMP JUMPDEST PUSH1 0x0 PUSH2 0xEFC DUP3 PUSH2 0xF74 JUMP JUMPDEST SWAP1 POP PUSH1 0x2 PUSH1 0x7 DUP3 ADD SLOAD PUSH1 0xFF AND PUSH1 0x5 DUP2 GT ISZERO PUSH2 0xF19 JUMPI PUSH2 0xF19 PUSH2 0x116A JUMP JUMPDEST EQ PUSH2 0xF36 JUMPI PUSH1 0x40 MLOAD PUSH3 0x461BCD PUSH1 0xE5 SHL DUP2 MSTORE PUSH1 0x4 ADD PUSH2 0x2D0 SWAP1 PUSH2 0x12D6 JUMP JUMPDEST PUSH1 0x7 DUP2 ADD DUP1 SLOAD PUSH1 0xFF NOT AND PUSH1 0x3 OR SWAP1 SSTORE PUSH1 0x40 MLOAD DUP3 SWAP1 PUSH32 0xFCC296B8BDD64E3F1D1FAADEF50CB2D6550F645316330FE57CB1DD7E0612EAD0 SWAP1 PUSH1 0x0 SWAP1 LOG2 POP POP JUMP JUMPDEST PUSH1 0x0 DUP2 DUP2 MSTORE PUSH1 0x2 PUSH1 0x20 MSTORE PUSH1 0x40 DUP2 KECCAK256 DUP1 SLOAD DUP3 SUB PUSH2 0xFA2 JUMPI PUSH1 0x40 MLOAD PUSH3 0x461BCD PUSH1 0xE5 SHL DUP2 MSTORE PUSH1 0x4 ADD PUSH2 0x2D0 SWAP1 PUSH2 0x12F5 JUMP JUMPDEST PUSH1 0x1 DUP2 ADD SLOAD PUSH1 0x1 PUSH1 0x1 PUSH1 0xA0 SHL SUB AND CALLER EQ PUSH2 0xFEC JUMPI PUSH1 0x40 MLOAD PUSH3 0x461BCD PUSH1 0xE5 SHL DUP2 MSTORE PUSH1 0x20 PUSH1 0x4 DUP3 ADD MSTORE PUSH1 0xB PUSH1 0x24 DUP3 ADD MSTORE PUSH11 0x27A7262CAFA320A926A2A9 PUSH1 0xA9 SHL PUSH1 0x44 DUP3 ADD MSTORE PUSH1 0x64 ADD PUSH2 0x2D0 JUMP JUMPDEST SWAP3 SWAP2 POP POP JUMP JUMPDEST PUSH1 0x0 DUP1 PUSH1 0x40 DUP4 DUP6 SUB SLT ISZERO PUSH2 0x1005 JUMPI PUSH1 0x0 DUP1 REVERT JUMPDEST POP POP DUP1 CALLDATALOAD SWAP3 PUSH1 0x20 SWAP1 SWAP2 ADD CALLDATALOAD SWAP2 POP JUMP JUMPDEST PUSH1 0x0 PUSH1 0x20 DUP3 DUP5 SUB SLT ISZERO PUSH2 0x1026 JUMPI PUSH1 0x0 DUP1 REVERT JUMPDEST POP CALLDATALOAD SWAP2 SWAP1 POP JUMP JUMPDEST PUSH1 0x0 DUP2 MLOAD DUP1 DUP5 MSTORE PUSH1 0x0 JUMPDEST DUP2 DUP2 LT ISZERO PUSH2 0x1053 JUMPI PUSH1 0x20 DUP2 DUP6 ADD DUP2 ADD MLOAD DUP7 DUP4 ADD DUP3 ADD MSTORE ADD PUSH2 0x1037 JUMP JUMPDEST POP PUSH1 0x0 PUSH1 0x20 DUP3 DUP7 ADD ADD MSTORE PUSH1 0x20 PUSH1 0x1F NOT PUSH1 0x1F DUP4 ADD AND DUP6 ADD ADD SWAP2 POP POP SWAP3 SWAP2 POP POP JUMP JUMPDEST PUSH1 0x0 PUSH1 0x20 DUP1 DUP4 ADD DUP2 DUP5 MSTORE DUP1 DUP6 MLOAD DUP1 DUP4 MSTORE PUSH1 0x40 DUP7 ADD SWAP2 POP PUSH1 0x40 DUP2 PUSH1 0x5 SHL DUP8 ADD ADD SWAP3 POP DUP4 DUP8 ADD PUSH1 0x0 JUMPDEST DUP3 DUP2 LT ISZERO PUSH2 0x10C8 JUMPI PUSH1 0x3F NOT DUP9 DUP7 SUB ADD DUP5 MSTORE PUSH2 0x10B6 DUP6 DUP4 MLOAD PUSH2 0x102D JUMP JUMPDEST SWAP5 POP SWAP3 DUP6 ADD SWAP3 SWAP1 DUP6 ADD SWAP1 PUSH1 0x1 ADD PUSH2 0x109A JUMP JUMPDEST POP SWAP3 SWAP8 SWAP7 POP POP POP POP POP POP POP JUMP JUMPDEST PUSH1 0x0 DUP1 DUP4 PUSH1 0x1F DUP5 ADD SLT PUSH2 0x10E7 JUMPI PUSH1 0x0 DUP1 REVERT JUMPDEST POP DUP2 CALLDATALOAD PUSH8 0xFFFFFFFFFFFFFFFF DUP2 GT ISZERO PUSH2 0x10FF JUMPI PUSH1 0x0 DUP1 REVERT JUMPDEST PUSH1 0x20 DUP4 ADD SWAP2 POP DUP4 PUSH1 0x20 DUP3 DUP6 ADD ADD GT ISZERO PUSH2 0x1117 JUMPI PUSH1 0x0 DUP1 REVERT JUMPDEST SWAP3 POP SWAP3 SWAP1 POP JUMP JUMPDEST PUSH1 0x0 DUP1 PUSH1 0x0 PUSH1 0x40 DUP5 DUP7 SUB SLT ISZERO PUSH2 0x1133 JUMPI PUSH1 0x0 DUP1 REVERT JUMPDEST DUP4 CALLDATALOAD SWAP3 POP PUSH1 0x20 DUP5 ADD CALLDATALOAD PUSH8 0xFFFFFFFFFFFFFFFF DUP2 GT ISZERO PUSH2 0x1151 JUMPI PUSH1 0x0 DUP1 REVERT JUMPDEST PUSH2 0x115D DUP7 DUP3 DUP8 ADD PUSH2 0x10D5 JUMP JUMPDEST SWAP5 SWAP8 SWAP1 SWAP7 POP SWAP4 SWAP5 POP POP POP POP JUMP JUMPDEST PUSH4 0x4E487B71 PUSH1 0xE0 SHL PUSH1 0x0 MSTORE PUSH1 0x21 PUSH1 0x4 MSTORE PUSH1 0x24 PUSH1 0x0 REVERT JUMPDEST DUP11 DUP2 MSTORE PUSH1 0x1 PUSH1 0x1 PUSH1 0xA0 SHL SUB DUP11 DUP2 AND PUSH1 0x20 DUP4 ADD MSTORE PUSH2 0x140 PUSH1 0x40 DUP4 ADD DUP2 SWAP1 MSTORE PUSH1 0x0 SWAP2 PUSH2 0x11AC DUP5 DUP4 ADD DUP14 PUSH2 0x102D JUMP JUMPDEST SWAP3 POP PUSH1 0xFF DUP12 AND PUSH1 0x60 DUP6 ADD MSTORE DUP10 ISZERO ISZERO PUSH1 0x80 DUP6 ADD MSTORE DUP9 PUSH1 0xA0 DUP6 ADD MSTORE DUP1 DUP9 AND PUSH1 0xC0 DUP6 ADD MSTORE POP POP DUP5 PUSH1 0xE0 DUP4 ADD MSTORE PUSH1 0x6 DUP5 LT PUSH2 0x11F3 JUMPI PUSH4 0x4E487B71 PUSH1 0xE0 SHL PUSH1 0x0 MSTORE PUSH1 0x21 PUSH1 0x4 MSTORE PUSH1 0x24 PUSH1 0x0 REVERT JUMPDEST PUSH2 0x100 DUP3 ADD SWAP4 SWAP1 SWAP4 MSTORE PUSH2 0x120 ADD MSTORE SWAP9 SWAP8 POP POP POP POP POP POP POP POP JUMP JUMPDEST PUSH1 0x0 DUP1 PUSH1 0x0 PUSH1 0x60 DUP5 DUP7 SUB SLT ISZERO PUSH2 0x1222 JUMPI PUSH1 0x0 DUP1 REVERT JUMPDEST DUP4 CALLDATALOAD SWAP3 POP PUSH1 0x20 DUP5 ADD CALLDATALOAD PUSH1 0xFF DUP2 AND DUP2 EQ PUSH2 0x123A JUMPI PUSH1 0x0 DUP1 REVERT JUMPDEST SWAP2 POP PUSH1 0x40 DUP5 ADD CALLDATALOAD DUP1 ISZERO ISZERO DUP2 EQ PUSH2 0x124F JUMPI PUSH1 0x0 DUP1 REVERT JUMPDEST DUP1 SWAP2 POP POP SWAP3 POP SWAP3 POP SWAP3 JUMP JUMPDEST PUSH1 0x0 PUSH1 0x20 DUP3 DUP5 SUB SLT ISZERO PUSH2 0x126C JUMPI PUSH1 0x0 DUP1 REVERT JUMPDEST DUP2 CALLDATALOAD PUSH1 0x1 PUSH1 0x1 PUSH1 0xA0 SHL SUB DUP2 AND DUP2 EQ PUSH2 0x1283 JUMPI PUSH1 0x0 DUP1 REVERT JUMPDEST SWAP4 SWAP3 POP POP POP JUMP JUMPDEST PUSH1 0x0 DUP1 PUSH1 0x0 PUSH1 0x40 DUP5 DUP7 SUB SLT ISZERO PUSH2 0x129F JUMPI PUSH1 0x0 DUP1 REVERT JUMPDEST DUP4 CALLDATALOAD PUSH8 0xFFFFFFFFFFFFFFFF DUP2 GT ISZERO PUSH2 0x12B6 JUMPI PUSH1 0x0 DUP1 REVERT JUMPDEST PUSH2 0x12C2 DUP7 DUP3 DUP8 ADD PUSH2 0x10D5 JUMP JUMPDEST SWAP1 SWAP8 SWAP1 SWAP7 POP PUSH1 0x20 SWAP6 SWAP1 SWAP6 ADD CALLDATALOAD SWAP5 SWAP4 POP POP POP POP JUMP JUMPDEST PUSH1 0x20 DUP1 DUP3 MSTORE PUSH1 0x5 SWAP1 DUP3 ADD MSTORE PUSH5 0x5354415445 PUSH1 0xD8 SHL PUSH1 0x40 DUP3 ADD MSTORE PUSH1 0x60 ADD SWAP1 JUMP JUMPDEST PUSH1 0x20 DUP1 DUP3 MSTORE PUSH1 0x9 SWAP1 DUP3 ADD MSTORE PUSH9 0x1393D517D193D55391 PUSH1 0xBA SHL PUSH1 0x40 DUP3 ADD MSTORE PUSH1 0x60 ADD SWAP1 JUMP JUMPDEST PUSH1 0x1 DUP2 DUP2 SHR SWAP1 DUP3 AND DUP1 PUSH2 0x132C JUMPI PUSH1 0x7F DUP3 AND SWAP2 POP JUMPDEST PUSH1 0x20 DUP3 LT DUP2 SUB PUSH2 0x134C JUMPI PUSH4 0x4E487B71 PUSH1 0xE0 SHL PUSH1 0x0 MSTORE PUSH1 0x22 PUSH1 0x4 MSTORE PUSH1 0x24 PUSH1 0x0 REVERT JUMPDEST POP SWAP2 SWAP1 POP JUMP JUMPDEST PUSH1 0x20 DUP1 DUP3 MSTORE PUSH1 0x9 SWAP1 DUP3 ADD MSTORE PUSH9 0x149151539514905395 PUSH1 0xBA SHL PUSH1 0x40 DUP3 ADD MSTORE PUSH1 0x60 ADD SWAP1 JUMP JUMPDEST PUSH4 0x4E487B71 PUSH1 0xE0 SHL PUSH1 0x0 MSTORE PUSH1 0x41 PUSH1 0x4 MSTORE PUSH1 0x24 PUSH1 0x0 REVERT JUMPDEST PUSH1 0x1F DUP3 GT ISZERO PUSH2 0x13D5 JUMPI PUSH1 0x0 DUP2 DUP2 MSTORE PUSH1 0x20 DUP2 KECCAK256 PUSH1 0x1F DUP6 ADD PUSH1 0x5 SHR DUP2 ADD PUSH1 0x20 DUP7 LT ISZERO PUSH2 0x13B2 JUMPI POP DUP1 JUMPDEST PUSH1 0x1F DUP6 ADD PUSH1 0x5 SHR DUP3 ADD SWAP2 POP JUMPDEST DUP2 DUP2 LT ISZERO PUSH2 0x13D1 JUMPI DUP3 DUP2 SSTORE PUSH1 0x1 ADD PUSH2 0x13BE JUMP JUMPDEST POP POP POP JUMPDEST POP POP POP JUMP JUMPDEST PUSH8 0xFFFFFFFFFFFFFFFF DUP4 GT ISZERO PUSH2 0x13F2 JUMPI PUSH2 0x13F2 PUSH2 0x1375 JUMP JUMPDEST PUSH2 0x1406 DUP4 PUSH2 0x1400 DUP4 SLOAD PUSH2 0x1318 JUMP JUMPDEST DUP4 PUSH2 0x138B JUMP JUMPDEST PUSH1 0x0 PUSH1 0x1F DUP5 GT PUSH1 0x1 DUP2 EQ PUSH2 0x143A JUMPI PUSH1 0x0 DUP6 ISZERO PUSH2 0x1422 JUMPI POP DUP4 DUP3 ADD CALLDATALOAD JUMPDEST PUSH1 0x0 NOT PUSH1 0x3 DUP8 SWAP1 SHL SHR NOT AND PUSH1 0x1 DUP7 SWAP1 SHL OR DUP4 SSTORE PUSH2 0x1494 JUMP JUMPDEST PUSH1 0x0 DUP4 DUP2 MSTORE PUSH1 0x20 SWAP1 KECCAK256 PUSH1 0x1F NOT DUP7 AND SWAP1 DUP4 JUMPDEST DUP3 DUP2 LT ISZERO PUSH2 0x146B JUMPI DUP7 DUP6 ADD CALLDATALOAD DUP3 SSTORE PUSH1 0x20 SWAP5 DUP6 ADD SWAP5 PUSH1 0x1 SWAP1 SWAP3 ADD SWAP2 ADD PUSH2 0x144B JUMP JUMPDEST POP DUP7 DUP3 LT ISZERO PUSH2 0x1488 JUMPI PUSH1 0x0 NOT PUSH1 0xF8 DUP9 PUSH1 0x3 SHL AND SHR NOT DUP5 DUP8 ADD CALLDATALOAD AND DUP2 SSTORE JUMPDEST POP POP PUSH1 0x1 DUP6 PUSH1 0x1 SHL ADD DUP4 SSTORE JUMPDEST POP POP POP POP POP JUMP JUMPDEST DUP2 DUP4 MSTORE DUP2 DUP2 PUSH1 0x20 DUP6 ADD CALLDATACOPY POP PUSH1 0x0 DUP3 DUP3 ADD PUSH1 0x20 SWAP1 DUP2 ADD SWAP2 SWAP1 SWAP2 MSTORE PUSH1 0x1F SWAP1 SWAP2 ADD PUSH1 0x1F NOT AND SWAP1 SWAP2 ADD ADD SWAP1 JUMP JUMPDEST PUSH1 0x20 DUP2 MSTORE PUSH1 0x0 PUSH2 0x14D8 PUSH1 0x20 DUP4 ADD DUP5 DUP7 PUSH2 0x149B JUMP JUMPDEST SWAP5 SWAP4 POP POP POP POP JUMP JUMPDEST PUSH4 0x4E487B71 PUSH1 0xE0 SHL PUSH1 0x0 MSTORE PUSH1 0x11 PUSH1 0x4 MSTORE PUSH1 0x24 PUSH1 0x0 REVERT JUMPDEST DUP1 DUP3 ADD DUP1 DUP3 GT ISZERO PUSH2 0xFEC JUMPI PUSH2 0xFEC PUSH2 0x14E0 JUMP JUMPDEST PUSH1 0x0 PUSH1 0x1 DUP3 ADD PUSH2 0x151B JUMPI PUSH2 0x151B PUSH2 0x14E0 JUMP JUMPDEST POP PUSH1 0x1 ADD SWAP1 JUMP JUMPDEST PUSH1 0x40 DUP2 MSTORE PUSH1 0x0 PUSH2 0x1536 PUSH1 0x40 DUP4 ADD DUP6 DUP8 PUSH2 0x149B JUMP JUMPDEST SWAP1 POP DUP3 PUSH1 0x20 DUP4 ADD MSTORE SWAP5 SWAP4 POP POP POP POP JUMP INVALID LOG2 PUSH5 0x6970667358 0x22 SLT KECCAK256 0xED PUSH12 0xE01DDAD7070B773417316B56 0x4F 0xDC 0xE 0xB6 0xF CREATE 0xCE CALLDATALOAD 0xF9 0xB7 0xDA CALLVALUE 0x2D 0x2F PUSH13 0xEEBD4364736F6C634300081400 CALLER "},"methodIdentifiers":{"addProvenance(uint256,string)":"bcc27ee8","createBatch(string,uint256)":"e1162306","fundEscrow(uint256)":"c9c31af5","getBatch(uint256)":"5ac44282","getProvenanceCIDs(uint256)":"37c5f3b6","incentivePoints(address)":"bfefec1f","listBatch(uint256,uint256)":"21664650","markDelivered(uint256)":"eb826a5f","refundBuyer(uint256)":"39292763","releaseToFarmer(uint256)":"a0a58683","updateMetadata(uint256,string)":"53c8388e","updateQuality(uint256,uint8,bool)":"a705d398"}}}}}